:020000040800F2
:100000000004002021010008F1010008F1010008AE
:10001000F1010008F1010008F1010008F1010008F8
:10002000F1010008F1010008F10100084102000897
:10003000F1010008F1010008F101000811020008B7
:10004000F101000861280008F128000821290008B2
:10005000F1010008F10100081126000841260008FE
:1000600071260008A1260008D126000821200008DA
:1000700071200008C120000811210008612100083A
:10008000B121000801220008C1240008F101000884
:10009000F1010008F10100085129000801270008BA
:1000A000F1010008F1010008F1010008F101000868
:1000B000912E0008F1010008F1010008F10100088B
:1000C000F1010008F1010008F1010008F101000848
:1000D000F1010008F1010008B1320008F101000847
:1000E000A127000891280008C1280008F101000894
:0400F000F101000812
:10010000704700BFAFF30080AFF30080AFF3008013
:10011000FEE700BFAFF30080AFF30080AFF30080D5
:1001200072B6244C84F30988022484F31488BFF344
:100130006F8F214C214D04E023461C1D4FF055329A
:100140001A60AC42F8D31E4C1A4D04E023461C1D25
:100150004FF055321A60AC42F8D303F0F1F8194D64
:10016000194C05E023461C1D2A46151D12681A600D
:10017000164B9C42F6D3164C164D03E023461C1D2D
:1001800000221A60AC42F9D3FFF7BAFF124C02E02A
:10019000236898470434114B9C42F9D304F078FA51
:1001A0000F4C02E02368984704340E4B9C42F9D36D
:1001B000FFF7AEFF00080020000000200004002030
:1001C00000040020C051000800080020180800208A
:1001D0001808002034140020F4000008F40000087F
:1001E000F4000008F4000008AFF30080AFF30080D3
:1001F000FEE700BFAFF30080AFF30080AFF30080F5
:1002000072B6FEE7AFF30080AFF30080AFF300807B
:1002100008B500F03DFA202383F3118800F008FAB6
:1002200000F066F900F01CFA002383F3118800F057
:100230004FFA00F02DF808BDAFF30080AFF3008057
:1002400082B0EFF309830193019B20330193019B5B
:1002500083F30988002383F3118802B0704700BF3D
:1002600008B5094B00229A60074B084ADA6007205C
:10027000102100F0C5F80A20202100F0C1F80B2061
:10028000802100F0BDF808BD00ED00E00003FA0594
:1002900082B0202383F311881F4B5B6803F4006353
:1002A000002B33D0EFF309830193019B203B019393
:1002B000019B4FF08072DA61019B83F30988174B31
:1002C0009B6993F82330002B0BD0144B1B689A6862
:1002D000124B9B699B689A4294BF00230123DBB2B7
:1002E0000AE00E4B1B689A680C4B9B699B689A420C
:1002F00034BF00230123DBB2002B03D0019B084A4B
:100300009A6106E0019B074A9A6102E0002383F3A9
:10031000118802B0704700BF00ED00E0680D0020BA
:10032000310300083C030008AFF30080AFF3008006
:1003300000F04EF900F024FD00F062F900DF00BF8C
:1003400003460A462DE9F04FC2F80CD0D3F80CD082
:10035000BDE8F08FAFF30080AFF30080AFF3008013
:1003600008B500F04DF9002383F311882846A04713
:1003700000F01EFE08BD00BFAFF30080AFF30080A9
:1003800010B485B001900091019B03F00303DB00E2
:100390000393194B019A9208174901988008C030BD
:1003A00051F820000399FF2404FA01F1C9430840E1
:1003B0000399009C04FA01F10143C03243F8221072
:1003C0000D4B019A5209019901F01F01012000FA19
:1003D00001F1603243F82210074B019A520901994A
:1003E00001F01F01012000FA01F143F8221005B0CD
:1003F0005DF8044B704700BF00E100E0AFF3008000
:1004000010B485B001900091019B03F00303DB0061
:1004100003930D4B019A92080B490198800806300E
:1004200051F820000399FF2404FA01F1C943084060
:100430000399009C04FA01F10143063243F82210AB
:1004400005B05DF8044B704700ED00E0AFF30080AD
:1004500082B00190024B9B69024A9A61FEE700BF9D
:10046000680D002070480008AFF30080AFF30080F3
:1004700000B583B0FFF7F4FE00F09AFA00F0D0F96F
:1004800001F0F6FA01F04CFB00F072F9124840213D
:1004900000F096FC0246114B9A61104B9B690122B9
:1004A00083F820200D4B9B690D4ADA6100F078F843
:1004B000002383F3118862B6084B9B69094A9A614D
:1004C000002300930848E0210122084B00F018FDAA
:1004D00003B05DF804FB00BFF8080020680D0020A1
:1004E00000040020305000081808002051040008C3
:1004F00000B583B000F00CF9244B9B6993F82330CE
:10050000002B07D0214B9B6993F82320013AD2B2EC
:1005100083F823201D4B9B695A6A01325A621C4B97
:10052000DB685A1C1A4BDA60194B1A68184B9A424E
:1005300029D0174B1B689A68013A9A601CE0019B0E
:10054000DB680093019B0022DA60019B1B68104A64
:100550005A60019B1A680E4B1A6000F081F8002364
:1005600083F31188019B1A69009B1046984720234A
:1005700083F3118800F05CF8054B1B680193019B25
:100580009B68002BDBD003B05DF804FB680D0020F6
:10059000580D0020AFF30080AFF30080AFF3008070
:1005A00008B5064B1B68002B03D1054B1B68002BBD
:1005B00002D0044800F024F908BD00BF440900201F
:1005C0004809002090480008AFF30080AFF3008096
:1005D00008B5074B1B68002B03D1064B1B68002B8B
:1005E00002D0054800F00CF9024B01221A6008BD48
:1005F000440900204809002098480008AFF3008013
:1006000008B5074B1B68002B03D1064B1B68002B5A
:1006100002DC054800F0F4F8024B00221A6008BD25
:100620004409002048090020A0480008AFF30080DA
:1006300008B5074B1B68002B03DD064B1B68002B1E
:1006400002D0054800F0DCF8024B01221A6008BD18
:100650004409002048090020A8480008AFF30080A2
:1006600008B5074B1B68002B03DD064B1B68002BEE
:1006700002DC054800F0C4F8024B00221A6008BDF5
:100680004409002048090020B0480008AFF300806A
:1006900008B5202383F31188094B1B68002B03DB6B
:1006A000084B1B68002B02D0074800F0A9F8044B48
:1006B0001B685A1C024B1A60002383F3118808BD83
:1006C0004409002048090020B8480008AFF3008022
:1006D00008B5202383F31188094B1B68002B03DD29
:1006E000084B1B68002B02D0074800F089F8044B28
:1006F0001B685A1E024B1A60002383F3118808BD41
:100700004409002048090020C0480008AFF30080D9
:1007100008B5064B1B68002B03DB054B1B68002B41
:1007200002DC044800F06CF808BD00BF440900205A
:1007300048090020C8480008AFF30080AFF30080EC
:1007400008B5064B1B68002B03D1054B1B68002B1B
:1007500002DC044800F054F808BD00BF4409002042
:1007600048090020D0480008AFF30080AFF30080B4
:10077000034B40221A60024B024A5A60704700BF86
:100780004C09002054090020AFF30080AFF3008033
:1007900082B00190124B5B68124AD2681A60104B0B
:1007A0005B68114A92695A600D4B5B68019A926AC4
:1007B0009A600B4B5B68019A92F820201A73084BE1
:1007C0005B6803F11002064B5A60054B5A68074BF1
:1007D0009A4202D3024B064A5A6002B0704700BFE9
:1007E0004C090020580D0020680D0020540D0020F9
:1007F00054090020AFF30080AFF30080AFF3008016
:1008000000B583B00190044B019A1A60FFF7F8FC21
:1008100003B05DF804FB00BF540D0020AFF300806F
:10082000074B074A5A60064B5A68054B1A60044B3F
:100830004FF0FF329A60024B0022DA60704700BF2F
:10084000580D0020AFF30080AFF30080AFF30080BD
:1008500000B587B00390029101920093FFF758FF13
:10086000039B002B05D0019B002B02D0029B002B89
:1008700002D11D48FFF7C4FF039B009A1A61039B36
:10088000019ADA60194B1B68059307E0059B9B688A
:10089000029AD31A0293059B1B680593059B9A68DD
:1008A000029B9A42F2D3039B059A1A60039B1B6832
:1008B0005A68039B5A60039B5B68059A03995160D1
:1008C000059A52681A60039B029A9A60059A074B30
:1008D0009A4205D0059B9A68029BD21A059B9A60A2
:1008E00007B05DF804FB00BFE0480008580D002089
:1008F00000B583B00190FFF70BFF019B002B02D1E5
:100900001348FFF77DFF019BDB68002B02D11148E4
:10091000FFF776FF019B1A680F4B9A4208D0019BA4
:100920001B68019A12689168019A92680A449A6059
:10093000019B5B68019A12681A60019B1B68019A0F
:1009400052685A60019B0022DA6003B05DF804FB34
:10095000F048000800490008580D0020AFF300805F
:1009600084B00190019B1B680393039B1A68019B51
:100970001A60019B1B68019A5A60039B184604B0D9
:10098000704700BFAFF30080AFF30080AFF300808B
:1009900082B00190019B5B68019A12681A60019B0A
:1009A0001B68019A52685A60019B184602B0704752
:1009B000084B084A5A60074B5A68064B1A60054BA9
:1009C00000229A60034B034A5A61024B5A69014B59
:1009D0001A617047680D0020AFF30080AFF300800C
:1009E00000B585B00190FFF793FE019B93F820308E
:1009F000002B04D0019B93F820300E2B02D113481A
:100A0000FFF7FEFE019B002283F82020104B03938A
:100A1000039B1B680393039B9A68019B9B689A4204
:100A2000F6D2019B039A1A60039B5A68019B5A6095
:100A3000019B5B68039A01995160039A52681A609E
:100A4000019B184605B05DF804FB00BF2049000873
:100A5000680D0020AFF30080AFF30080AFF300809B
:100A600000B585B003468DF80730FFF769FE164BD9
:100A70009B690393039B9DF8072083F82020039B29
:100A8000142283F823201048FFF76AFF02460E4B1A
:100A90009A610D4B9B69012283F820200398FFF790
:100AA00077FE6B46A3F12402039BDB699A4202D2D4
:100AB0000648FFF7A5FE044B9B6918460399FFF70C
:100AC0003FFC05B05DF804FB680D002034490008C8
:100AD00000B585B00190019B0393202383F3118817
:100AE000FFF7A6FD039B93F820300D2B2CD801A215
:100AF00052F823F02D0B0008490B0008490B0008A1
:100B0000390B0008490B0008430B0008490B00088B
:100B1000490B0008490B0008490B0008490B000865
:100B2000490B0008490B0008430B0008FFF798FD2C
:100B3000002383F3118813E0039B9B6A9A680132B8
:100B40009A600398FFF724FF039B4FF0FF329A62ED
:100B50000398FFF745FFFFF783FD002383F3118818
:100B600005B05DF804FB00BFAFF30080AFF3008079
:100B700000B589B0034600918DF80730FFF7E0FD1E
:100B8000009BB3F1FF3F15D0104B9B6903AA1046A1
:100B900000990F4AFFF75CFE9DF807301846FFF7F3
:100BA0005FFF069B002B04D003AB1846FFF7A0FEA7
:100BB00005E004E09DF807301846FFF751FF034BAE
:100BC0009B699B6A184609B05DF804FB680D00201C
:100BD000D10A0008AFF30080AFF30080AFF30080CC
:100BE00000B585B001900091FFF7AAFD019B009A26
:100BF0009A62019B9A68154B9B699B689A4203D83D
:100C00000198FFF7EDFE1DE0104B9B691846FFF7BA
:100C1000E7FE03900D4B019A9A61019B012283F834
:100C200020200398FFF7B4FD6B46A3F12402039B39
:100C3000DB699A4202D20648FFF7E2FD0198039968
:100C4000FFF77EFB05B05DF804FB00BF680D0020D8
:100C500034490008AFF30080AFF30080AFF30080A9
:100C600008B5FFF76DFD054B1B689A68034B9B6940
:100C70009B689A4201D900F03BF808BD680D00203E
:100C800000B583B0154B9B6901931448FFF768FECC
:100C90000246124B9A61114B9B69012283F8202076
:100CA000019B142283F823200198FFF799FE0198F5
:100CB000FFF76EFD6B46A3F12402019BDB699A42AC
:100CC00002D20748FFF79CFD044B9B691846019927
:100CD000FFF736FB03B05DF804FB00BF680D002092
:100CE00034490008AFF30080AFF30080AFF3008019
:100CF00000B583B0204B9B6900931F48FFF730FE7F
:100D000002461D4B9A611C4B9B69012283F82020EF
:100D1000009B002283F82020174B0193019B1B6846
:100D20000193019B9A68009B9B689A42F6D8009BAE
:100D3000019A1A60019B5A68009B5A60009B5B688D
:100D4000019A00995160019A52681A600098FFF761
:100D50001FFD6B46A3F12402009BDB699A4202D27D
:100D60000648FFF74DFD044B9B6918460099FFF7B5
:100D7000E7FA03B05DF804FB680D00203449000871
:100D800008B5064B9B6993F82330002B02D1FFF77F
:100D900077FF01E0FFF7ACFF08BD00BF680D002042
:100DA00084B00190019B1B680393039B1A68019B0D
:100DB0001A60039B184604B0704700BFAFF3008071
:100DC00082B001900091019B009A9A60019B0222DF
:100DD00083F82020019B002283F82120019B14220C
:100DE00083F82320019B009A5A64019B00221A6415
:100DF000019B0022DA63019B00225A62019B0122BF
:100E000083F82220019B00229A61019B124A1A61F9
:100E1000114B5A69019B5A61019B5B690E4A01990A
:100E200051610D4A52691A61019B03F12C02019B29
:100E3000DA62019B03F13002019B5A63019B5A6BFA
:100E4000019B1A63019B03F14C02019BDA61019B38
:100E5000184602B0704700BF680D0020AFF3008055
:100E600084B00390029113468DF8073005E0039B90
:100E70005A1C03929DF807201A70039A029B9A420B
:100E8000F5D304B0704700BFAFF30080AFF300802C
:100E900000B587B00390029101920093039B0593E4
:100EA000FFF736FC039B002B08D0029BCF2B05D904
:100EB000019B7F2B02D8009B002B02D10E48FFF72D
:100EC0009FFC029B243B039A1A44059BDA60059B16
:100ED000DB68009A1A60059BDB68089A5A60059BDC
:100EE000DB68064A1A6205980199FFF769FF034615
:100EF000184607B05DF804FB50490008610300087C
:100F000000B589B00590049103920293059B4C3380
:100F100005981946FF22FFF7A3FF059B03F14C023A
:100F20000599049B0B44104619465522FFF798FF7C
:100F3000202383F31188FFF74BFB0A9B009305984E
:100F40000499039A029BFFF7A3FF079007980021DB
:100F5000FFF746FEFFF754FB002383F31188079B3E
:100F6000184609B05DF804FBAFF30080AFF30080D2
:100F700000B583B00190019B002B02D10948FFF717
:100F80003FFC202383F31188FFF722FB0620019901
:100F9000FFF7EEFDFFF734FB002383F3118803B066
:100FA0005DF804FB90490008AFF30080AFF30080C8
:100FB00000B583B00190202383F31188FFF708FB6D
:100FC000019800F005F803B05DF804FBAFF3008072
:100FD00000B585B00190184B9B690393039B019A60
:100FE0009A6208E0039B2C331846FFF7D9FE0346AC
:100FF0001846FFF7F5FC039BDA6A039B2C339A42F1
:10100000F0D1039B93F8213003F00303002B09D1A7
:10101000039B5B69039A12691A61039B1B69039A1C
:1010200052695A610E20FFF71BFD0448FFF7E8FBE9
:1010300005B05DF804FB00BF680D0020A049000862
:1010400082B001900091019B009A1A60009B5A683F
:10105000019B5A60019B5B68009A01995160009A5C
:1010600052681A6002B07047AFF30080AFF300809F
:1010700084B00190019B5B680393039B5A68019BBA
:101080005A60019B5B68019A1A60039B184604B082
:10109000704700BFAFF30080AFF30080AFF3008074
:1010A00000B583B001900091019B002B02D0009B02
:1010B000002B02DA0748FFF7A3FB019A019B5A6055
:1010C000019B5A68019B1A60019B009A9A6003B0C9
:1010D0005DF804FBF0490008AFF30080AFF3008037
:1010E00000B583B001900091202383F31188FFF7AE
:1010F0006FFA0198009900F00BF8FFF7B1FDFFF7C8
:101100007FFA002383F3118803B05DF804FB00BF6E
:1011100000B585B001900091FFF7FAFA019B002B12
:1011200002D0009B002B02DA1948FFF769FB019BF4
:101130009B68002B04DB019B1A68019B9A420BD031
:10114000019B9B68002B04DA019B1A68019B9A4261
:1011500002D11048FFF754FB019B9B680393019B4E
:10116000009A9A600BE0019B1846FFF781FF034647
:101170001846FFF735FC03466FF001029A62039BA5
:1011800001330393039B002BEDDD05B05DF804FBF9
:10119000004A0008104A0008AFF30080AFF3008057
:1011A00000B585B00190202383F31188FFF710FA72
:1011B000019800F00DF80390FFF722FA002383F363
:1011C0001188039B184605B05DF804FBAFF300805F
:1011D00000B583B00190FFF7B3FA019B002B02D159
:1011E0001B48FFF70DFB019B9B68002B04DB019B59
:1011F0001A68019B9A420BD0019B9B68002B04DA72
:10120000019B1A68019B9A4202D11248FFF7F8FA33
:10121000019B9B685A1E019B9A60019B9B68002B57
:1012200011DA0D4B9B69019A9A620B4B9A69019BEB
:1012300010461946FFF704FF0320FFF711FC064B89
:101240009B699B6A00E00023184603B05DF804FB2D
:10125000244A0008344A0008680D0020AFF30080DB
:1012600000B583B00190019B002B02D10748FFF726
:10127000C7FA019A019B5A60019B5A68019B1A6048
:10128000019B00229A6003B05DF804FB404B00080C
:1012900000B585B0039002910192039B002B02D010
:1012A000029B002B02D11048FFF7AAFA202383F3F8
:1012B0001188FFF78DF9039B1A68029B1A60039B44
:1012C000029A1A60094B9A69029B5A60029B019A22
:1012D0009A60029B0022DA60FFF792F9002383F301
:1012E000118805B05DF804FBF04B0008680D002084
:1012F00000B585B001900091FFF70AFA019B002B21
:1013000002D10F48FFF77CFA019B1B68039310E0A2
:10131000039BDA68009B1A43039BDA60039B5A68BD
:10132000039B9B681046194600F02AF8039B1B6834
:101330000393039A019B9A42EAD105B05DF804FB3E
:101340001C4C0008AFF30080AFF30080AFF30080C7
:1013500000B585B00190202383F31188FFF738F999
:10136000019BDB680393019B0022DA60FFF748F9D9
:10137000002383F31188039B184605B05DF804FB36
:1013800000B583B001900091FFF7C2F9019B002BDB
:1013900002D11648FFF734FA019BDA6B009B1A431F
:1013A000019BDA63019B93F82030082B06D1019B47
:1013B000DA6B019B9B6A1340002B0DD1019B93F8C4
:1013C0002030092B0ED1019BDA6B019B9B6A1A40DE
:1013D000019B9B6A9A4205D10198FFF701FB0346E6
:1013E00000229A6203B05DF804FB00BF444C000881
:1013F00000B585B0019000911D4B9B69039320239C
:1014000083F31188FFF7E4F8039BDA6B019B1A4022
:10141000019B9A421AD0009B002B06D1FFF7F0F8EF
:10142000002383F3118800231DE0039B019A9A6235
:1014300009200099FFF79CFB0346002B06DAFFF713
:10144000DFF8002383F3118800230CE0039BDA6BA1
:10145000019BDB431A40039BDA63FFF7D1F80023BB
:1014600083F31188019B184605B05DF804FB00BFAB
:10147000680D0020AFF30080AFF30080AFF3008071
:1014800082B001900091019B009A1A60009B5A68FB
:10149000019B5A60019B5B68009A01995160009A18
:1014A00052681A6002B07047AFF30080AFF300805B
:1014B00084B00190019B1B680393039B1A68019BF6
:1014C0001A60019B1B68019A5A60039B184604B07E
:1014D000704700BFAFF30080AFF30080AFF3008030
:1014E00000B583B001900091009B002B02D14FF01A
:1014F000FF330FE0094B9B69019A9A62074B9A6987
:10150000019B10461946FFF7BBFF0D200099FFF71E
:101510002FFB0346184603B05DF804FB680D00205E
:1015200084B00390029101920093039A039B5A6046
:10153000039B5A68039B1A60039B00229A60039BDB
:10154000029A5A61039B5A69039B9A61039B9A69A9
:10155000039BDA60029A019B1A44039B1A61039B66
:10156000009ADA61039B049A1A6204B0704700BFC4
:1015700000B583B00190FFF7CBF8019BDA68019BBF
:101580005A61019B5A69019B9A61019B00229A60F2
:101590000BE0019B1846FFF78BFF03461846FFF749
:1015A0001FFA03466FF001029A62019B1A68019BC1
:1015B0009A42EED103B05DF804FB00BFAFF30080A8
:1015C00000B583B001900B468DF80330FFF7A0F80B
:1015D000019B5A69019B9B699A4205D1019B9B68BB
:1015E000002B01D0012300E0002303F00103DBB254
:1015F000002B02D06FF0030327E0019B9B685A1C6D
:10160000019B9A60019B5B69591C019A51619DF88D
:1016100003201A70019B5A69019B1B699A4203D3EC
:10162000019BDA68019B5A61019B1A68019B9A42EF
:101630000AD0019B1846FFF73BFF03461846FFF709
:10164000CFF9034600229A620023184603B05DF8E2
:1016500004FB00BFAFF30080AFF30080AFF3008066
:1016600000B585B001900091202383F31188FEF727
:10167000AFFF019BDB69002B04D0019BDB69019864
:1016800098470FE00EE001980099FFF729FF0390BB
:10169000039B002B06DAFEF7B3FF002383F31188C8
:1016A000039B21E0019B9B68002BECD0019B9B6876
:1016B0005A1E019B9A60019B9B69591C019A91617A
:1016C0001B788DF80B30019B9A69019B1B699A422C
:1016D00003D3019BDA68019B9A61FEF791FF002317
:1016E00083F311889DF80B30184605B05DF804FBB4
:1016F00000B587B00390029101920093039BDB69D0
:10170000049300230593019B002B02D12A48FFF785
:1017100077F8202383F31188FEF75AFF049B002BF0
:1017200003D0049B039898470EE00DE003980099BE
:10173000FFF7D6FE0346002B06D0FEF761FF00231D
:1017400083F31188059B32E0039B9B68002BEDD04F
:10175000039B9B685A1E039B9A60029B5A1C029231
:10176000039A9269501C0399886112781A70039B3E
:101770009A69039B1B699A4203D3039BDA68039B14
:101780009A61FEF73DFF002383F31188059B013327
:101790000593019B013B0193019B002B01D1059B0C
:1017A00005E0202383F31188FEF712FFB6E7184601
:1017B00007B05DF804FB00BF804C0008AFF3008069
:1017C00084B00390029101920093039A039B5A60A4
:1017D000039B5A68039B1A60039B019A9A60039BC0
:1017E000029A5A61039B5A69039B9A61039B9A6907
:1017F000039BDA60029A019B1A44039B1A61039BC4
:10180000009ADA61039B049A1A6204B0704700BF21
:1018100000B583B00190FEF77BFF019BDA68019B66
:101820005A61019B5A69019B9A61019B1B691A4687
:10183000019BDB68D31A1A46019B9A600BE0019B5F
:101840001846FFF735FE03461846FFF7C9F803466A
:101850006FF001029A62019B1A68019B9A42EED1D5
:1018600003B05DF804FB00BFAFF30080AFF300806E
:1018700000B587B003900B4601928DF80B30202302
:1018800083F31188FEF7A4FE0EE003980199FFF799
:1018900027FE0590059B002B06DAFEF7B1FE00231C
:1018A00083F31188059B28E0039B9B68002BECD0F9
:1018B000039B9B685A1E039B9A60039B5B69591CA0
:1018C000039A51619DF80B201A70039B5A69039B80
:1018D0001B699A4203D3039BDA68039B5A61039BFB
:1018E000DB69002B03D0039BDB6903989847FEF765
:1018F00087FE002383F311880023184607B05DF8A4
:1019000004FB00BFAFF30080AFF30080AFF30080B3
:1019100000B585B00190FEF7FBFE019B5A69019B63
:101920009B699A4205D1019B9B68002B01D0012342
:1019300000E0002303F00103DBB2002B02D06FF0C4
:10194000020328E0019B9B685A1C019B9A60019B43
:101950009B69591C019A91611B788DF80F30019B8E
:101960009A69019B1B699A4203D3019BDA68019B28
:101970009A61019B1A68019B9A420AD0019B184602
:10198000FFF796FD03461846FFF72AF803460022A4
:101990009A629DF80F30184605B05DF804FB00BF51
:1019A00000B587B00390029101920093039BDB691D
:1019B000049300230593019B002B02D12A48FEF7D4
:1019C0001FFF202383F31188FEF702FE0DE003982A
:1019D0000099FFF785FD0346002B06D0FEF710FEA9
:1019E000002383F31188059B39E0039B9B68002B40
:1019F000EDD0039B9B685A1E039B9A60039B5B6917
:101A0000591C039A5161029A511C029112781A7062
:101A1000039B5A69039B1B699A4203D3039BDA68B1
:101A2000039B5A61049B002B02D0049B03989847A8
:101A3000FEF7E6FD002383F31188059B0133059330
:101A4000019B013B0193019B002B01D1059B06E00B
:101A5000202383F31188FEF7BBFD00BFC5E71846BE
:101A600007B05DF804FB00BF944C0008AFF30080A2
:101A7000064B073323F007031A46054B1A60054B44
:101A800023F007031A46044B1A60704734140020F1
:101A9000840D002000400120880D0020AFF300805D
:101AA00000B585B00190202383F31188FEF790FDE7
:101AB000019800F00DF80390FEF7A2FD002383F3D8
:101AC0001188039B184605B05DF804FBAFF3008056
:101AD00000B585B00190FEF71BFE019B073323F094
:101AE000070301930C4B1B681A460C4B1B68D31A57
:101AF0001A46019B9A4201D2002309E0074B1B685A
:101B00000393064B1A68019B1A44044B1A60039B0B
:101B1000184605B05DF804FB880D0020840D0020F8
:101B200008B5064B064A1A60044B00229A60034B24
:101B30000022DA600348FFF793FB08BD900D0020F8
:101B4000A11A0008A00D0020AFF30080AFF30080C1
:101B500008B500F0DDFB074801F092F800F010F83E
:101B600000F036F800F084F800F0C2F901F0F0FB64
:101B700008BD00BFE0500008AFF30080AFF3008065
:101B800008B500F0FDFC08BDAFF30080AFF30080A6
:101B900000B583B00190019B01221A70019B0022C5
:101BA0005A60019B00229A60019B0022DA60019B2F
:101BB00000221A61019B00225A61019B18331846CA
:101BC000FFF74EFB03B05DF804FB00BFAFF30080EE
:101BD00008B500F025FF08BDAFF30080AFF300802B
:101BE00082B00190019B01221A70019B00225A6071
:101BF00002B07047AFF30080AFF30080AFF3008016
:101C000000B583B001900091019B002B02D0009B96
:101C1000002B02D11148FEF7F3FD202383F3118836
:101C2000FEF7D6FC019B1B78012B06D0019B1B788D
:101C3000022B02D00A48FEF7E3FD019B009A5A608E
:101C4000019800F0F5FE019B02221A70FEF7D8FC05
:101C5000002383F3118803B05DF804FBB04C000847
:101C6000C04C0008AFF30080AFF30080AFF30080FA
:101C700008B501F01DF908BDAFF30080AFF3008097
:101C800082B00190019B01221A70019B00225A60D0
:101C900002B07047AFF30080AFF30080AFF3008075
:101CA00000B583B001900091019B002B02D0009BF6
:101CB000002B02D11148FEF7A3FD202383F31188E6
:101CC000FEF786FC019B1B78012B06D0019B1B783D
:101CD000022B02D00A48FEF793FD019B009A5A603E
:101CE000019801F0F5F8019B02221A70FEF788FCBA
:101CF000002383F3118803B05DF804FB804D0008D6
:101D0000904D0008AFF30080AFF30080AFF3008088
:101D100000B583B001900091202383F31188FEF772
:101D200057FC0198009900F00BF8FEF769FC0023BE
:101D300083F3118803B05DF804FB00BFAFF30080AC
:101D400000B583B001900091FEF7E2FC019B002BEF
:101D500002D10A48FEF754FD019B1B78022B02D0EA
:101D60000748FEF74DFD019B03221A700198009968
:101D700001F00EF903B05DF804FB00BFEC4D000864
:101D8000044E0008AFF30080AFF30080AFF3008093
:101D900000B585B0039002910192039B3033184641
:101DA0000299019A4FF0FF33FFF7FAFD03461846F8
:101DB00005B05DF804FB00BFAFF30080AFF3008017
:101DC00000B585B0039002910192039B0C33184635
:101DD0000299019A4FF0FF33FFF78AFC0346184639
:101DE00005B05DF804FB00BFAFF30080AFF30080E7
:101DF00000B583B001900B468DF80330019B03F1D1
:101E000030029DF80330104619464FF0FF32FFF7BD
:101E10002FFD0346184603B05DF804FBAFF30080C6
:101E200000B583B00190019B0C3318464FF0FF3191
:101E3000FFF716FC0346184603B05DF804FB00BF2D
:101E400000B585B003900B4601928DF80B30039BD3
:101E500003F130029DF80B3010461946019AFFF746
:101E600007FD0346184605B05DF804FBAFF300809C
:101E700000B583B001900091019B0C331846009986
:101E8000FFF7EEFB0346184603B05DF804FB00BF06
:101E900000B585B00390029101920093039B30330B
:101EA00018460299019A009BFFF77AFD03461846EF
:101EB00005B05DF804FB00BFAFF30080AFF3008016
:101EC00000B585B00390029101920093039B0C33FF
:101ED00018460299019A009BFFF70AFC0346184630
:101EE00005B05DF804FB00BFAFF30080AFF30080E6
:101EF00008B501F0EDF908BDAFF30080AFF3008045
:101F000000B587B0059004910392059B124A1A60B0
:101F1000059B1A1D059B5A60059B01221A72059BA1
:101F200003F10C02059B54330599009110461946A4
:101F30001022049BFFF7F4FA059B03F13002059B86
:101F4000643305990091104619461022039BFFF750
:101F500037FC07B05DF804FB50500008AFF3008079
:101F600000B583B001900091019B002B02D1114874
:101F7000FEF746FC202383F31188FEF729FB019B23
:101F80001B7A012B06D0019B1B7A022B02D00A4838
:101F9000FEF736FC0198009901F0AAF9019B022294
:101FA0001A72FEF72DFB002383F3118803B05DF84E
:101FB00004FB00BF904E00089C4E0008AFF3008069
:101FC00000B583B001900B468DF80330FEF7A0FBFF
:101FD000019B002B02D11148FEF712FC019B5B69AB
:101FE000002B05D1019B043318460421FFF780F92B
:101FF000019B03F10C029DF8033010461946FFF7D0
:10200000DFFA0346002B05DA019B043318468021D2
:10201000FFF76EF903B05DF804FB00BFC84E00087F
:1020200000B583B0FEF734FB0C4B1B6803F00F03C5
:1020300001930A4B019A5A60094B1B68002B06D08A
:10204000074B1B68064A5268104601999847FEF7ED
:102050003FFBFEF71DF903B05DF804FB0060024092
:10206000B40D0020AFF30080AFF30080AFF3008029
:1020700000B583B0FEF70CFB0D4B1B681B0903F08A
:102080000F0301930A4B019A12015A60094B9B6896
:10209000002B06D0074B9B68064AD2681046019970
:1020A0009847FEF715FBFEF7F3F803B05DF804FB65
:1020B00000600240B40D0020AFF30080AFF3008059
:1020C00000B583B0FEF7E4FA0D4B1B681B0A03F062
:1020D0000F0301930A4B019A12025A60094B1B69C4
:1020E000002B06D0074B1B69064A5269104601991E
:1020F0009847FEF7EDFAFEF7CBF803B05DF804FB66
:1021000000600240B40D0020AFF30080AFF3008008
:1021100000B583B0FEF7BCFA0D4B1B681B0B03F038
:102120000F0301930A4B019A12035A60094B9B69F2
:10213000002B06D0074B9B69064AD26910460199CD
:102140009847FEF7C5FAFEF7A3F803B05DF804FB65
:1021500000600240B40D0020AFF30080AFF30080B8
:1021600000B583B0FEF794FA0D4B1B681B0C03F00F
:102170000F0301930A4B019A12045A60094B1B6A20
:10218000002B06D0074B1B6A064A526A104601997B
:102190009847FEF79DFAFEF77BF803B05DF804FB65
:1021A00000600240B40D0020AFF30080AFF3008068
:1021B00000B583B0FEF76CFA0D4B1B681B0D03F0E6
:1021C0000F0301930A4B019A12055A60094B9B6A4F
:1021D000002B06D0074B9B6A064AD26A104601992B
:1021E0009847FEF775FAFEF753F803B05DF804FB65
:1021F00000600240B40D0020AFF30080AFF3008018
:1022000000B583B0FEF744FA0D4B1B681B0E03F0BC
:102210000F0301930A4B019A12065A60094B1B6B7C
:10222000002B06D0074B1B6B064A526B10460199D8
:102230009847FEF74DFAFEF72BF803B05DF804FB64
:1022400000600240B40D0020AFF30080AFF30080C7
:1022500082B0104B00221A600023019311E00E4956
:10226000019A13465B0013449B000B441B68002239
:102270001A600A4B019A002143F83210019B013386
:102280000193019B062BEADD054B4FF0FF325A60AC
:1022900002B07047B00D002070500008B40D00204F
:1022A00000600240AFF30080AFF30080AFF3008026
:1022B000154B154A126842F480721A60134B5B6B1F
:1022C00003F44033B3F5803F0BD0104B0F4A526BF1
:1022D00042F400025A630D4B0C4A526B22F4000286
:1022E0005A630A4B5B6B03F48003002B0BD1074B43
:1022F000064A526B42F480325A63044B034A526BD3
:1023000042F480025A637047007000400038024077
:1023100008B51E4B1D4A126962F400421A611B4B3C
:1023200000221A61194B194A926962F080529A612F
:10233000164B00229A61154B5B69144B4FF0FF322C
:102340005A61124B00225A61114B47F6FF425A6004
:102350000F4B00229A600E4B07221A600D4B0D4A5C
:10236000D26842F08072DA600B4B0B4A126842F07E
:1023700001021A60054B054A526A42F080525A62C5
:10238000FFF796FFFFF764FF08BD00BF003802406B
:1023900010E000E0F0ED00E0001000E0AFF300809E
:1023A000434B4FF080525A6200BF424B5B6803F0D0
:1023B0001003002BF9D13F4B4FF400621A6000BFAD
:1023C0003C4B5B6803F01003002BF9D1384B002223
:1023D0009A60374B364A526822F4604242F42042F7
:1023E0005A60334B4FF480721A6000BF304B1B6849
:1023F00003F40073002BF9D02D4B2D4A126842F0E4
:1024000001021A6000BF2A4B1B6803F00203002B75
:10241000F9D0274B264A526B42F001025A6300BFA3
:10242000234B5B6B03F00203002BF9D0204B204AB7
:10243000926842F408029A601D4B1D4A126842F0ED
:1024400080721A6000BF1A4B1B6803F00073002BE8
:10245000F9D0174B164A12681A60154B144A926845
:102460009A60134B124A526B42F480325A63124BF9
:1024700004221A60104B07221A600D4B0C4A926816
:1024800042F003029A6000BF094B9B6803F00C0303
:102490000C2BF9D1064B064A126A42F001021A626D
:1024A000034B034AD26A42F00102DA62704700BF6E
:1024B0000038024000700040003C0240AFF3008052
:1024C00000B583B0FEF7E4F8284B1B680193274B57
:1024D00000221A60019B03F02003002B3FD0244B05
:1024E000DB6A1B685B68002B39D0214B1B69002B12
:1024F00035D01F4800F064F81D4B1B699B68002B0A
:102500000FD01B4B05221A70194B1B699B6818488A
:1025100001219847164B1B78052B02D1144B022240
:102520001A70134B00221A61202383F31188FEF7DF
:102530007FF80F4B5B69002B0CD00D4B5B69009350
:102540000B4B00225A61009B4FF0FF329A620098B9
:10255000FEF746FAFEF784F8002383F31188FEF7AE
:10256000B7F8FDF795FE03B05DF804FB00240140C9
:10257000EC0D0020AFF30080AFF30080AFF30080DC
:1025800008B50948FFF704FB074B084A9A62064B57
:10259000074ADA62044B42F28A521A63122060211F
:1025A000FDF7EEFE08BD00BFEC0D00200024014049
:1025B00070500008AFF30080AFF30080AFF30080ED
:1025C00082B00190019BDB6A1B68019AD26A126893
:1025D000126822F00F021A60019BDB6A5B68019AA5
:1025E000D26A127A0F2101FA02F21A60019B9B6AE9
:1025F00000225A60019B9B6A00229A60019B9B6AA1
:1026000001229A6002B07047AFF30080AFF3008000
:1026100008B5FEF73DF8074B01225A61064B5B688F
:102620005B68054800219847FEF752F8FDF730FE39
:1026300008BD00BF00040140200E0020AFF3008061
:1026400008B5FEF725F8074B02225A61064B5B6876
:10265000DB68054801219847FEF73AF8FDF718FEB8
:1026600008BD00BF00040140200E0020AFF3008031
:1026700008B5FEF70DF8074B04225A61064B5B685C
:102680005B69054802219847FEF722F8FDF700FE36
:1026900008BD00BF00040140200E0020AFF3008001
:1026A00008B5FDF7F5FF074B08225A61064B5B683A
:1026B000DB69054803219847FEF70AF8FDF7E8FDB6
:1026C00008BD00BF00040140200E0020AFF30080D1
:1026D00008B5FDF7DDFF074B10225A61064B5B681A
:1026E0005B6A054804219847FDF7F2FFFDF7D0FD2E
:1026F00008BD00BF00040140200E0020AFF30080A1
:1027000000B583B0FDF7C4FF224B5B6903F4787317
:102710000193204B019A5A61019B03F02003002B87
:1027200005D01D4B5B68DB6A1B4805219847019B60
:1027300003F04003002B05D0174B5B685B6B16481A
:1027400006219847019B03F08003002B05D0124B14
:102750005B68DB6B104807219847019B03F480738B
:10276000002B05D00C4B5B685B6C0B48082198472D
:10277000019B03F40073002B05D0074B5B68DB6CF7
:10278000054809219847FDF7A3FFFDF781FD03B038
:102790005DF804FB00040140200E0020AFF3008030
:1027A00000B583B0FDF774FF284B5B6903F47C43ED
:1027B0000193264B019A5A61019B03F48063002B1D
:1027C00005D0234B5B685B6D21480A219847019B2C
:1027D00003F40063002B05D01D4B5B68DB6D1C48C8
:1027E0000B219847019B03F48053002B05D0184B15
:1027F0005B685B6E16480C219847019B03F40053FD
:10280000002B05D0124B5B68DB6E11480D219847F9
:10281000019B03F48043002B05D00D4B5B685B6F7D
:102820000B480E219847019B03F40043002B05D071
:10283000074B5B68DB6F06480F219847FDF748FFA1
:10284000FDF726FD03B05DF804FB00BF0004014066
:10285000200E0020AFF30080AFF30080AFF30080C4
:1028600008B5FDF715FF084B4FF480325A61074B4E
:102870005B68D3F88430054810219847FDF728FF9E
:10288000FDF706FD08BD00BF00040140200E00203A
:1028900008B5FDF7FDFE084B4FF400325A61074BB7
:1028A0005B68D3F88C30054811219847FDF710FF7D
:1028B000FDF7EEFC08BD00BF00040140200E002023
:1028C00008B5FDF7E5FE084B4FF480225A61074B2F
:1028D0005B68D3F89430054812219847FDF7F8FE5D
:1028E000FDF7D6FC08BD00BF00040140200E00200B
:1028F00008B5FDF7CDFE084B4FF400225A61074B97
:102900005B68D3F89C30054813219847FDF7E0FE3B
:10291000FDF7BEFC08BD00BF00040140200E0020F2
:1029200008B5FDF7B5FE084B4FF480125A61074B0E
:102930005B68D3F8A430054814219847FDF7C8FE1A
:10294000FDF7A6FC08BD00BF00040140200E0020DA
:1029500000B583B0FDF79CFE134B5B6903F4C00325
:102960000193114B019A5A61019B03F40013002B50
:1029700006D00E4B5B68D3F8AC300C481521984755
:10298000019B03F48003002B06D0084B5B68D3F84F
:10299000B430064816219847FDF79AFEFDF778FCFB
:1029A00003B05DF804FB00BF00040140200E0020CE
:1029B00008B506206021FDF7E3FC07206021FDF744
:1029C000DFFC08206021FDF7DBFC09206021FDF71A
:1029D000D7FC0A206021FDF7D3FC17206021FDF70A
:1029E000CFFC28206021FDF7CBFC01206021FDF702
:1029F000C7FC29206021FDF7C3FC2A206021FDF7D8
:102A0000BFFC02206021FDF7BBFC03206021FDF725
:102A1000B7FC16206021FDF7B3FC08BDAFF30080C2
:102A200008B50248FFF7DCF808BD00BF200E002003
:102A300000B585B00190019B1B78012B01D1FFF7F8
:102A4000B7FF0023039314E0019B5B68039A53F8DC
:102A5000323003F00403002B04D00198039900F0F6
:102A60000FF803E00198039900F0AAF8039B0133E3
:102A70000393039B162BE7D905B05DF804FB00BF59
:102A800086B001900091009B0F2B28D8009B9B08DB
:102A90000593009B03F003039B000F2202FA03F34C
:102AA000DB430493019B5B68009A53F8323003F0D8
:102AB000F0031A09009B03F003039B0002FA03F3DF
:102AC00003933C4B3B4A0599023152F82110049A7A
:102AD0001140039A1143059A023243F82210019BD8
:102AE0005B68009A53F8323003F00103002B09D0E1
:102AF000314B314A9168009A012000FA02F20A43F0
:102B00009A6009E02C4B2C4A9168009A012000FA47
:102B100002F2D2430A409A60019B5B68009A53F824
:102B2000323003F00203002B09D0234B224AD16834
:102B3000009A012000FA02F20A43DA6009E01E4B13
:102B40001D4AD168009A012000FA02F2D2430A40DD
:102B5000DA60019B5A68009BDB0013445B68002B22
:102B600013D0154B144A1168009A012000FA02F2A2
:102B70000A431A60104B104A5168009A012000FA6B
:102B800002F2D2430A405A6012E00B4B0A4A5168E3
:102B9000009A012000FA02F20A435A60064B064AE4
:102BA0001168009A012000FA02F2D2430A401A602A
:102BB00006B070470000014000040140AFF3008000
:102BC00082B001900091184B174A1168009A0120B9
:102BD00000FA02F2D2430A401A60134B124A5168BB
:102BE000009A012000FA02F2D2430A405A600E4BCA
:102BF0000D4A9168009A012000FA02F2D2430A407D
:102C00009A60094B084AD168009A012000FA02F242
:102C1000D2430A40DA60044B009A012101FA02F221
:102C20005A6102B0704700BF00040140AFF300805A
:102C300082B001900091009B5A68019B5A60009BF2
:102C40009A68019B9A60009BDA68019BDA60009B9E
:102C50001A69019B5A61009B5A69019B1A62009B89
:102C60009A69019B5A62009B1A68019B1A6002B024
:102C7000704700BFAFF30080AFF30080AFF3008078
:102C800000B583B001901C4B1B4AD26942F03F0251
:102C9000DA61194B184A926A42F03F029A62164B67
:102CA000154A926A42F03F029A62019B1348194604
:102CB000FFF7BEFF019B1C3311481946FFF7B8FF11
:102CC000019B38330F481946FFF7B2FF019B54337D
:102CD0000D481946FFF7ACFF019B70330B481946AE
:102CE000FFF7A6FF019B8C3309481946FFF7A0FFA9
:102CF00003B05DF804FB00BF003802400000024052
:102D00000004024000080240000C02400010024093
:102D100000140240AFF30080AFF30080AFF30080F7
:102D20008EB0039002910192019B03F003030D9377
:102D3000019B03F004039B080C93019B03F0180311
:102D4000DB080B93019B03F060035B090A93019B73
:102D500003F4F063DB09089300230993029B03F05B
:102D60000103002B54D0099B03F007039B00089A32
:102D700002FA03F30793099B03F007039B000F225A
:102D800002FA03F30693099B072B09D8039B1A6ADF
:102D9000069BDB431A40079B1A43039B1A6208E019
:102DA000039B5A6A069BDB431A40079B1A43039B0B
:102DB0005A62099B012202FA03F30593039B5A68A6
:102DC000059BDB431A400C9B1A43039B5A60099BEB
:102DD0005B00032202FA03F30493039B9A68049BAB
:102DE000DB431A400B9B1A43039B9A60039BDA68F0
:102DF000049BDB431A400A9B1A43039BDA60039B44
:102E00001A68049BDB431A400D9B1A43039B1A600C
:102E1000029B5B080293029B002B00D10FE00C9BEE
:102E20005B000C930B9B9B000B930A9B9B000A93EC
:102E30000D9B9B000D93099B013309938EE70EB008
:102E4000704700BFAFF30080AFF30080AFF30080A6
:102E500000B583B00190019BDB6800221A61019BE1
:102E60001B78042B05D1019B02221A70019800F0F7
:102E7000B7F8019B5B685B680198984703B05DF801
:102E800004FB00BFAFF30080AFF30080AFF300801E
:102E900008B5FDF7FDFB0448FFF7DAFFFDF718FC66
:102EA000FDF7F6F908BD00BF280E0020AFF3008043
:102EB00008B5044B4FF08042DA600248FEF7E0FEAE
:102EC00008BD00BF280E0020AFF30080AFF30080E4
:102ED00000B585B00190019B1B78012B19D1019A97
:102EE000264B9A4215D1264B254A526A42F00102DE
:102EF0005A62234B224A926942F001029A61204BA6
:102F000000229A611C207021FDF73AFA019B1D4AAC
:102F10009A60019B9A68019B5B681B68B2FBF3F3A4
:102F20009BB2013BADF80E30BDF80E300133019A73
:102F30005268126802FB03F2019B9B689A4202D01E
:102F40001148FDF75DFC019BDB6800221A60019BC4
:102F5000DB6808225A60019BDB68BDF80E209A628C
:102F6000019BDB68019A52689268D2B2DA60019BD9
:102F7000DB6800221A6105B05DF804FB280E002012
:102F8000003802400048E801F04E0008AFF300802E
:102F900082B001900091019BDB68009A013ADA62ED
:102FA000019BDB6801225A61019BDB6800225A62A7
:102FB000019BDB6800221A61019BDB68019AD268E1
:102FC000D26842F00102DA60019BDB6805221A60D8
:102FD00002B07047AFF30080AFF30080AFF3008022
:102FE00082B00190019BDB6800221A60019BDB68C4
:102FF00000221A61019BDB68019AD268D26822F034
:10300000FF02DA6002B07047AFF30080AFF30080D8
:1030100084B001900091019B5B6F0393019B5A6FF9
:10302000194B9A4208D1009B1B68184AB2FBF3F374
:103030009AB2039B1A8107E0009B1B68134AB2FBFC
:10304000F3F39AB2039B1A81009BDB8843F04003A1
:103050009AB2039B1A82009B1B8943F001039AB228
:10306000039B9A82009B9B8843F4045343F02C03F8
:103070009AB2039B9A81039B00221A80039B1B88B0
:10308000039B9B8804B07047003801400048E8016A
:1030900000B585B001900B46ADF8023000230393D4
:1030A000BDF8023003F00803002B03D0039B43F06C
:1030B00080030393BDF8023003F00103002B03D01B
:1030C000039B43F020030393BDF8023003F0020397
:1030D000002B03D0039B43F040030393BDF8023061
:1030E00003F00403002B03D0039B43F4807303938A
:1030F000019B043318460399FEF7FAF805B05DF812
:1031000004FB00BFAFF30080AFF30080AFF300809B
:1031100000B587B00190019B5B6F0493049B9B8972
:10312000ADF80E30049B1B88ADF81630BDF8163094
:1031300003F48073002B14D0202383F31188FDF750
:1031400077FA019B043318464FF40071FEF7D0F86C
:10315000FDF786FA002383F31188049B4FF6FF6284
:103160001A80202383F31188FDF762FA17E0BDF877
:10317000163003F00F03002B05D0BDF81630019870
:103180001946FFF785FF049B9B889BB2DBB2019831
:103190001946FEF715FF049B1B88ADF81630BDF8E5
:1031A000163003F02003002BE1D1FDF759FA00237C
:1031B00083F31188BDF80E3003F08003002B2ED06E
:1031C000BDF8163003F08003002B28D0202383F3B2
:1031D0001188FDF72DFA019B30331846FEF798FB56
:1031E0000290029B002B11DA019B04331846082140
:1031F000FEF77EF8BDF80E3023F0C0039BB243F01B
:1032000040039BB29AB2049B9A8103E0029B9AB25C
:10321000049B9A80FDF724FA002383F31188BDF8FC
:10322000163003F04003002B2CD0202383F31188A9
:10323000FDF7FEF9019B5A6C019B9B6C9A4205D1EC
:10324000019B9B6B002B01D0012300E0002303F0C6
:103250000103DBB2002B05D0019B0433184610217B
:10326000FEF746F8BDF80E3023F040039AB2049BF7
:103270009A81049B4FF6BF721A80FDF7F1F9002383
:1032800083F3118807B05DF804FB00BFAFF3008043
:1032900082B00190044B044A928992B242F08002BB
:1032A00092B29A8102B0704700440040AFF30080B0
:1032B00008B5FDF7EDF90448FFF72AFFFDF708FA16
:1032C000FCF7E6FF08BD00BF380E0020AFF300801A
:1032D00008B504480021044AFEF712FE014B034AD8
:1032E0005A6708BD380E00209132000800440040A3
:1032F00000B583B001900091009B002B01D10D4BD4
:103300000093019B1B7A012B0DD1019A0A4B9A4223
:1033100009D10A4B094A526A42F400325A62262005
:10332000C021FDF72DF801980099FFF771FE03B059
:103330005DF804FBD0500008380E00200038024031
:1033400008B5FFF72DF808BDAFF30080AFF300809C
:10335000704700BFAFF30080AFF30080AFF3008091
:1033600088B00390029101920093029B0593009B09
:10337000002B02D1029B049301E0009B0493039B6A
:103380000B330693059B019AB3FBF2F2019901FB03
:1033900002F29B1A0793079B30330793079B392B45
:1033A00002DD079B07330793069B013B0693079BB0
:1033B000DAB2069B1A70059A019BB2FBF3F30593F0
:1033C000049A019BB2FBF3F30493049B002BD9D125
:1033D000039B0B331A46069BD31A0793039B5A1C75
:1033E0000392069A511C069112781A70079B013BB2
:1033F0000793079B002BF1D1039B184608B0704739
:1034000000B585B003900291019203980299019A48
:103410000023FFF7A5FF0346184605B05DF804FB3F
:1034200000B591B0039002910192029B5A1C029246
:103430001B788DF837309DF83730002B00D105E22E
:103440009DF83730252B08D0039B1B689B689DF89F
:103450003720039811469847F7E105AB0F9305AB6A
:103460000E9300238DF82630029B1B782D2B05D15F
:10347000029B0133029301238DF8263020238DF81F
:103480003630029B1B782E2B03D0029B1B78302BEF
:1034900005D1029B0133029330238DF8363000238F
:1034A0000A93029B5A1C02921B788DF837309DF8C4
:1034B00037302F2B09D99DF83730392B05D89DF897
:1034C0003730303B8DF8373012E09DF837302A2BFB
:1034D00006D1019B1A1D01921B688DF8373007E059
:1034E00000BF00230B939DF837302E2B37D10AE015
:1034F0000A9A13469B0013445B001A469DF8373026
:1035000013440A93CDE7029B5A1C02921B788DF854
:1035100037309DF837302F2B09D99DF83730392BAC
:1035200005D89DF83730303B8DF837300BE09DF8EB
:1035300037302A2B06D1019B1A1D01921B688DF88A
:10354000373000E00BE00B9A13469B0013445B00FE
:103550000B939DF837300B9A13440B93D3E79DF8E8
:1035600037306C2B03D09DF837304C2B0ED1012314
:103570008DF82730029B1B78002B06D0029B5A1C2B
:1035800002921B788DF8373013E012E09DF8373047
:10359000402B05D99DF837305A2B01D8012300E084
:1035A00000238DF827309DF8273003F001038DF8B4
:1035B00027309DF83730443B342B00F2E28001A2E3
:1035C00052F823F0FB3600088337000883370008E1
:1035D0008337000883370008FB360008833700086C
:1035E00083370008833700088337000883370008D3
:1035F0004D370008833700088337000883370008F9
:1036000083370008833700084537000883370008F0
:10361000833700083D3700088337000883370008E8
:103620008337000883370008833700088337000892
:103630008337000883370008833700088337000882
:1036400099360008FB3600088337000883370008E6
:103650008337000883370008FB36000883370008EB
:103660008337000883370008833700088337000852
:103670004D37000883370008833700088337000878
:10368000B336000883370008453700088337000841
:10369000833700083D37000820238DF836300F9B14
:1036A0005A1C0F92019A111D01911268D2B21A7020
:1036B0006EE020238DF83630019B1A1D01921B68A5
:1036C0000E930E9B002B01D1624B0E930B9B002B94
:1036D00002D147F6FF730B930E9B0F9302E00F9BF3
:1036E00001330F930F9B1B78002B05D00B9B013BE5
:1036F0000B930B9B002BF2DA4AE09DF82730002B4E
:1037000005D0019B1A1D01921B68089304E0019BE0
:103710001A1D01921B680893089B002B07DA0F9B68
:103720005A1C0F922D221A70089B5B4208930F9827
:1037300008990A22FFF764FE0F9029E010238DF804
:10374000373006E00A238DF8373002E008238DF881
:1037500037309DF82730002B05D0019B1A1D0192B0
:103760001B68089304E0019B1A1D01921B680893D3
:103770009DF837300F9808991A46FFF741FE0F90D1
:1037800006E00F9B5A1C0F929DF837201A7000BF5D
:103790000F9A0E9BD31A0C930A9A0C9BD31A0A9376
:1037A0000A9B002B01DA00230A939DF8263083F050
:1037B0000103DBB2002B02D00A9B5B420A930A9BF7
:1037C000002B22DA0E9B1B782D2B10D19DF8363062
:1037D000302B0CD1039B1B689A680E9B591C0E91D1
:1037E0001B780398194690470C9B013B0C93039B55
:1037F0001B689B689DF836200398114698470A9BE2
:1038000001330A930A9B002BF1D109E0039B1B684B
:103810009A680E9B591C0E911B7803981946904785
:103820000C9B013B0C930C9B002BEFDA0AE0039BF3
:103830001B689B689DF836200398114698470A9BA1
:10384000013B0A930A9B002BF1D1EEE511B05DF824
:1038500004FB00BF104F0008AFF30080AFF30080FF
:1038600000B585B0039002910192039B3033184656
:103870000299019A4FF0FF33FEF792F8034618467B
:1038800005B05DF804FB00BFAFF30080AFF300802C
:1038900000B585B0039002910192039B0C3318464A
:1038A0000299019A4FF0FF33FDF722FF03461846B5
:1038B00005B05DF804FB00BFAFF30080AFF30080FC
:1038C00000B583B001900B468DF80330019B03F1E6
:1038D00030029DF80330104619464FF0FF32FDF7D5
:1038E000C7FF0346184603B05DF804FBAFF3008042
:1038F00000B583B00190019B0C3318464FF0FF31A7
:10390000FDF7AEFE0346184603B05DF804FB00BFAA
:1039100000B585B003900B4601928DF80B30039BE8
:1039200003F130029DF80B3010461946019AFDF75D
:103930009FFF0346184605B05DF804FBAFF3008017
:1039400000B583B001900091019B0C33184600999B
:10395000FDF786FE0346184603B05DF804FB00BF82
:1039600000B585B00390029101920093039B303320
:1039700018460299019A009BFEF712F80346184672
:1039800005B05DF804FB00BFAFF30080AFF300802B
:1039900000B585B00390029101920093039B0C3314
:1039A00018460299019A009BFDF7A2FE03461846AD
:1039B00005B05DF804FB00BFAFF30080AFF30080FB
:1039C00000B583B00190019800F02AFE0346184626
:1039D00003B05DF804FB00BFAFF30080AFF30080DD
:1039E00000B583B00190019800F01AFE0346002B49
:1039F0000CBF00230123DBB283F00103DBB203F031
:103A00000103DBB2184603B05DF804FBAFF300809E
:103A100000B583B00190019A92F8873043F010030B
:103A200082F88730019A92F88630122161F30403FC
:103A300082F88630019A92F8873043F0200382F8AA
:103A40008730202383F31188FCF7C2FD019B0C33E0
:103A50001846FDF78DFD019B30331846FDF7D8FE63
:103A6000019B043318460121FDF742FCFCF7C8FD19
:103A7000002383F3118803B05DF804FBAFF30080EB
:103A800000B583B00190019A92F887306FF3041368
:103A900082F88730202383F31188FCF799FD019B7E
:103AA000043318460221FDF723FCFCF7A9FD00238F
:103AB00083F3118803B05DF804FB00BFAFF300800F
:103AC00000B585B00190019B93F88730C3F3C00324
:103AD000DBB2002B00D140E1019B93F8943001331D
:103AE000DAB2019B83F89420019B93F89430012B68
:103AF00017D1019BD3F8803099481946FFF760F839
:103B0000019BDA6F019BD3F88030012101FA03F3A6
:103B1000104619460122FFF703F9019800F0A0FAB8
:103B20001BE1019B93F89430022B44D1019B93F845
:103B30008730C3F34013DBB2012B40F00E8120230A
:103B400083F31188FCF744FD019800F061FA0390BB
:103B5000FCF756FD002383F31188039B002B0BDA3F
:103B6000019B002283F88A20019A92F888306FF333
:103B7000010382F888300BE0039BDAB2019B83F8E3
:103B80008A20019A92F887306FF3451382F88730C4
:103B9000019B93F88630C3F34013DBB2012B01D1B4
:103BA000072100E00821019A92F8883061F385032B
:103BB00082F88830D1E0019B93F89430032B5AD1DE
:103BC0000198FFF70DFF0346002B07D1019B93F8E7
:103BD0008730C3F34013DBB2012B07D1019A92F86F
:103BE00088306FF3010382F88830B6E0019B93F8C8
:103BF0008830C3F38303DBB2002B08D1019A92F81B
:103C00008830022161F3010382F88830A5E0019B2E
:103C100093F88A301A46019B93F88830C3F38303E4
:103C2000DBB2013B42FA03F303F00103002B08D09F
:103C3000019A92F88830012161F3010382F88830FB
:103C400006E0019A92F888306FF3010382F8883019
:103C5000019B93F88830C3F38303DBB2013BDBB2F3
:103C600003F00F03D9B2019A92F8883061F385030B
:103C700082F8883071E0019B93F89430032B46D989
:103C8000019B93F894300D2B41D8019B93F894300D
:103C9000052B07D1019B93F88830C3F30103DBB2F6
:103CA000012B19D0019B93F89430092B07D1019B6C
:103CB00093F88830C3F30103DBB2002B0CD0019BD7
:103CC00093F894300D2B21D1019B93F88830C3F3E6
:103CD0000103DBB2022B19D1019B0D2283F8942042
:103CE000019B93F88830C3F30103DBB2022B06D1AA
:103CF000019A92F8873043F0200382F887300198C8
:103D000000F0C6F9019800F0ABFB26E025E0019B2E
:103D100093F894300D2B0BD9019B93F894302D2BF5
:103D200006D8019800F064FB019800F099FB14E0BC
:103D3000019800F05DFB019B93F89430002B0CD0B0
:103D4000019B002283F894200198FFF739FE034677
:103D5000002B02D00198FFF793FE05B05DF804FB3D
:103D6000200E0020AFF30080AFF30080AFF300809F
:103D700008B503480021002200F00AF808BD00BF82
:103D8000B00E0020AFF30080AFF30080AFF30080EF
:103D900000B587B0059004910392059B124A1A6002
:103DA000059B1A1D059B5A60059B01221A72059BF3
:103DB00003F10C02059B54330599009110461946F6
:103DC0001022049BFDF7ACFB059B03F13002059B21
:103DD000643305990091104619461022039BFDF7A4
:103DE000EFFC07B05DF804FB90510008AFF30080D2
:103DF00000B585B003900291039B002B02D163486C
:103E0000FCF7FEFC202383F31188FCF7E1FB039B06
:103E10001B7A012B06D0039B1B7A022B02D05C4835
:103E2000FCF7EEFC029B002B01D15A4B0293029B44
:103E30001A68039B5A67029B5A68039B9A67029B06
:103E40009A68039BDA67029BDA68039BC3F88020B9
:103E5000029B9A8A039BA3F88420039A92F88630E7
:103E6000122161F3040382F88630029B9B7DC3F329
:103E70000003D9B2039A92F8863061F3451382F8B1
:103E80008630039800F034F9039BD3F88020029B1E
:103E90001969414B43F83210039BD3F880303E4AF6
:103EA000DB0013443D4A5A60039B1B7A012B4FD120
:103EB000039A92F8873043F0080382F88730039A18
:103EC00092F887306FF3041382F88730039A92F8E0
:103ED000873043F0200382F88730039A92F88730C6
:103EE0006FF3861382F88730039A92F888306FF365
:103EF000010382F88830039B93F88630C3F34013A4
:103F0000DBB2012B01D1072100E00821039A92F8CE
:103F1000883061F3850382F88830039B002283F8A0
:103F20008A20039B002283F88B20039A92F8893021
:103F30006FF3030382F88930039B0022A3F88C20DF
:103F4000039B0022C3F89020039B002283F8942057
:103F5000FCF756FB002383F31188002300931048DD
:103F60004FF434717F220F4BFCF7CAFF202383F3F9
:103F70001188FCF72DFB039B02221A72FCF740FB11
:103F8000002383F3118805B05DF804FB204F00087F
:103F90002C4F000800080020540F00203145000875
:103FA00010100020B1450008AFF30080AFF300808F
:103FB00000B583B001900B468DF80330FCF7A8FBE9
:103FC000019B002B02D11148FCF71AFC019B5B6995
:103FD000002B05D1019B043318460421FDF788F915
:103FE000019B03F10C029DF8033010461946FDF7C2
:103FF000E7FA0346002B05DA019B043318468021BB
:10400000FDF776F903B05DF804FB00BF584F0008D8
:1040100000B585B00190FCF77BFB019B002B02D122
:104020000B48FCF7EDFB019B30331846FDF770FCA5
:104030000390039B002B05DA019B043318460821EB
:10404000FDF756F9039B184605B05DF804FB00BF69
:104050006C4F0008AFF30080AFF30080AFF3008037
:1040600082B00190019B5B6F019A926F012101FA6E
:1040700002F292B21A83019BDB6F019AD2F8802080
:10408000012101FA02F292B25A8302B0704700BFD6
:1040900082B00190019B5B6F019A926F012101FA3E
:1040A00002F292B25A83019BDB6F019AD2F8802010
:1040B000012101FA02F292B25A8302B0704700BFA6
:1040C00082B00190019B5B6F019A926F012101FA0E
:1040D00002F292B25A83019BDB6F019AD2F88020E0
:1040E000012101FA02F292B21A8302B0704700BFB6
:1040F00000B583B00190019B5A6F019B9B6F01211A
:1041000001FA03F3104619460122FEF709FE019B4E
:10411000DA6F019BD3F88030012101FA03F31046D6
:1041200019460122FEF7FCFD03B05DF804FB00BF59
:1041300084B00346ADF80630BDF806204FF6FF7395
:104140009A4201D1102365E000238DF80F30BDF8AD
:104150000630C3F30B0240F6FF739A4209D1BDF853
:1041600006301B0BADF806309DF80F300C338DF880
:104170000F30BDF80630DBB2FF2B09D1BDF8063099
:104180001B0AADF806309DF80F3008338DF80F305C
:10419000BDF8063003F00F030F2B09D1BDF8063030
:1041A0001B09ADF806309DF80F3004338DF80F3041
:1041B000BDF8063003F00703072B09D1BDF8063020
:1041C000DB08ADF806309DF80F3003338DF80F3063
:1041D000BDF8063003F00303032B09D1BDF8063008
:1041E0009B08ADF806309DF80F3002338DF80F3084
:1041F000BDF8063003F00103002B09D0BDF80630EE
:104200005B08ADF806309DF80F3001338DF80F30A4
:104210009DF80F30184604B0704700BFAFF3008020
:1042200000B583B00346ADF80630BDF80630184639
:10423000FFF77EFF0346033B0B2B21D801A252F868
:1042400023F000BF7542000875420008754200085F
:104250007542000879420008794200087942000856
:10426000794200087D4200087D4200087D42000836
:104270007D420008012304E0002302E0022300E065
:104280000323184603B05DF804FB00BFAFF30080C2
:1042900000B585B00190019BB3F88C309B089BB2B0
:1042A0001846FFF7BDFF03468DF80F300198FFF762
:1042B00087FB0346002B55D09DF80F30032B03D10D
:1042C0000198FFF7DDFB8CE09DF80F30022B34D115
:1042D000019B93F88B30DAB2019B93F88630C3F3DD
:1042E0004013DBB2012B01D17F2300E0FF231340F9
:1042F000DBB2DAB2019B83F88B20202383F3118891
:10430000FCF766F9019B93F88B3001981946FFF78B
:104310004FFEFCF775F9002383F31188019A92F898
:10432000873043F0400382F88730019A92F8893051
:104330006FF3030382F8893053E0019B93F88B30CD
:104340005B00DAB2019B83F88B209DF80F30012BC4
:1043500047D1019B93F88B300133DAB2019B83F88C
:104360008B203EE09DF80F30002B3AD1019BB3F833
:104370008C305B009AB2019BA3F88C20019B93F8D0
:104380008630C3F30403DBB2013BDBB203F01F034F
:10439000D9B2019A92F8863061F3040382F886302C
:1043A000019B93F88630C3F30403DBB2002B18DCC7
:1043B000019B002283F88B20019B93F88630C3F386
:1043C0004013DBB2012B01D1072100E00821019A43
:1043D00092F8893061F3030382F889300198FFF77E
:1043E00017FB05B05DF804FBAFF30080AFF300806E
:1043F00000B583B00190019BDB6F019AD2F8802059
:10440000012101FA02F292B25A83019BDA6F019BF9
:10441000D3F88030012101FA03F310461946012236
:10442000FEF77EFC019BB3F88C3003F01F031C2BBE
:104430000BD1019B002283F894200198FFF728FFFD
:10444000019B0022A3F88C2007E0019BB3F88C307D
:104450005B009AB2019BA3F88C2003B05DF804FBCB
:1044600000B585B0019000238DF80F300198FFF75B
:10447000F7FD00238DF80F3005E000BF9DF80F30E9
:1044800001338DF80F309DF80F30012BF5D90198CD
:10449000FFF716FE00238DF80F3008E000BF00BFC5
:1044A00000BF00BF9DF80F3001338DF80F309DF82D
:1044B0000F30012BF2D90E4B5A68019BC3F89020A4
:1044C000019BD3F880300B481946FEF7D9FA019BBF
:1044D000DA6F019BD3F88030012101FA03F3104613
:1044E00019460022FEF71CFC05B05DF804FB00BF76
:1044F000001000E0200E0020AFF30080AFF300803A
:1045000000B583B00190202383F31188FCF790F865
:1045100005480121FCF7FCFDFCF7A2F8002383F31A
:10452000118803B05DF804FB480F0020AFF3008052
:1045300000B585B001900B468DF803309DF803203F
:10454000164BD3F880309A4201D1144B03939DF857
:10455000033001981946FEF733FB114B5A68039B51
:10456000D3F89030D21A039BC3F89020039BD3F862
:104570009020039BB3F884301A44039BB3F8843033
:104580005B009A4207D8039BB3F88C3001339AB290
:10459000039BA3F88C2005B05DF804FBB00E00204F
:1045A000001000E0AFF30080AFF30080AFF30080B5
:1045B00000B583B00190114B9B69114A9A61114873
:1045C0001149FDF71DFB1148FDF75AFB0F48104933
:1045D000FDF766FB0D480221FDF79AFB0D4800210F
:1045E000FCF75EFD0B48FCF7DBFD0A480021FCF7F9
:1045F00077FD0948FFF764FAF4E700BF680D002073
:10460000804F0008200E0020540F0020280E0020AC
:10461000B0510008480F0020B00E0020AFF300801A
:1046200000B583B00190019B002B02D10648FCF736
:10463000E7F8019B93F88730C3F30013DBB2184609
:1046400003B05DF804FB00BF884F0008AFF30080A3
:104650000EB400B584B0019006AB039301980599A0
:10466000039AFEF7DDFE04B05DF804EB03B070477B
:1046700000B583B00190044B9B69044A9A614FF4E2
:10468000FA70FCF775FCFAE7680D0020A04F0008EF
:1046900030B591B0FDF75CFAFBF7EAFE6148012105
:1046A0000322FEF73DFB60480021FDF759FC5F4BFC
:1046B0005D4A1A605E4B0F935E4B03AC1D460FCDF7
:1046C0000FC495E8030084E80300FFF751FB03AB38
:1046D00057481946FFF78CFB544B1B681846564940
:1046E000FFF7B6FF514B1B6818465449544AFFF771
:1046F000AFFF0023009353484FF4A8714022524B60
:10470000FCF7FEFB0F9B1A1D09AB1046194604224D
:10471000FCF7BEFD4D4B1B695B0B03F00103002B47
:1047200006D10F9B1B681B680F98494901229847C7
:1047300002200A21FCF75CFE09AB1846FCF708FED4
:104740000E900E9B002B00D16BE00E9B03F001033B
:10475000002B08D0354B1B6818463E49FFF778FF01
:10476000304B20221A830E9B03F00203002B08D04B
:104770002E4B1B6818463849FFF76AFF294B202249
:104780005A830E9B03F00403002B1FD00F9B1B6862
:104790005B690F98002198470D900D9BB3F1FF3F87
:1047A00010D0224B1A680D9BDBB210462B491A46DB
:1047B000FFF74EFF0F9B1B689B680D9AD2B20F98B4
:1047C000114698470D9BB3F1FF3FDFD10E9B03F0DD
:1047D0008003002B08D0154B1B6818462049FFF7B3
:1047E00037FF104B20225A830E9B03F04003002B0F
:1047F00008D00E4B1B6818461A49FFF729FF094BD2
:1048000020225A830E9B03F02003002B09D0074B74
:104810001B6818461449FFF71BFF024B20225A83DE
:1048200078E777E700000240380E002030140020BF
:10483000B00E002014500008A84F0008BC4F00081C
:104840000048E801E012002071460008000802401C
:10485000C84F0008CC4F0008D84F0008E44F0008AC
:10486000E84F0008F44F000804500008AFF3008040
:1048700069646C650000000000000000000000009A
:10488000535623310000000053562332000000002D
:104890005356233300000000535623340000000019
:1048A0005356233500000000535623360000000005
:1048B00053562337000000005356233800000000F1
:1048C00053562339000000005356233130000000B6
:1048D00053562331310000000000000000000000AA
:1048E0002263685654536574492228290000000049
:1048F0002263685654526573657449222829000062
:104900006368565452657365744928292C202331F5
:104910000000000000000000000000000000000097
:10492000636853636852656164794928292C2023A0
:1049300031000000737461636B206F766572666C82
:104940006F77000000000000000000000000000081
:10495000226368546864437265617465492228293A
:1049600000000000226368546864536574507269E3
:104970006F72697479222829000000006368546806
:1049800064526573756D6528292C20233100000061
:10499000226368546864536C65657022282900009E
:1049A0006368546864457869745328292C2023313E
:1049B000000000002263685468645761697422280B
:1049C0002900000063685468645761697428292CC1
:1049D0002023310063685468645761697428292C66
:1049E0002023320000000000000000000000000052
:1049F00022636853656D496E69742228290000009E
:104A000022636853656D52657365744922282900D5
:104A1000636853656D52657365744928292C20239A
:104A20003100000022636853656D57616974532239
:104A300028290000636853656D57616974532829FC
:104A40002C2023310000000022636853656D5761FC
:104A5000697454696D656F757453222829000000CC
:104A6000636853656D5761697454696D656F7574DA
:104A70005328292C2023310022636853656D536924
:104A8000676E616C22282900636853656D536967FE
:104A90006E616C28292C20233100000022636853AA
:104AA000656D5369676E616C49222829000000001A
:104AB000636853656D5369676E616C4928292C20C2
:104AC0002331000022636853656D416464436F7550
:104AD0006E746572492228290000000063685365DE
:104AE0006D416464436F756E7465724928292C208A
:104AF0002331000022636853656D5369676E616CF2
:104B00005761697422282900636853656D5369678A
:104B10006E616C5761697428292C202331000000D4
:104B2000636853656D5369676E616C57616974287A
:104B3000292C2023320000000000000000000000AB
:104B40002263684D7478496E697422282900000038
:104B50002263684D74784C6F636B532228290000E0
:104B600063684D74784C6F636B5328292C20233174
:104B70000000000063684D74784C6F636B53282904
:104B80002C202332000000002263684D7478547298
:104B9000794C6F636B5322282900000063684D74C1
:104BA00078556E6C6F636B28292C20233100000030
:104BB00063684D7478556E6C6F636B28292C2023C5
:104BC0003200000063684D7478556E6C6F636B53F0
:104BD00028292C202331000063684D7478556E6CB1
:104BE0006F636B5328292C20233200000000000043
:104BF00022636845767452656769737465724D61A6
:104C0000736B222829000000226368457674556E74
:104C1000726567697374657222282900226368458A
:104C2000767442726F6164636173744D61736B4932
:104C3000222829002263684576745369676E616C87
:104C4000222829002263684576745369676E616C77
:104C500049222829000000002263684576744469CF
:104C600073706174636822282900000063684576C8
:104C700074446973706174636828292C202331009F
:104C800022636849515265616454696D656F75743A
:104C9000222829002263684F51577269746554694C
:104CA0006D656F7574222829000000000000000067
:104CB0002265787453746172742228290000000000
:104CC000657874537461727428292C202331000094
:104CD0002265787453746F702228290065787453A4
:104CE000746F7028292C202331000000226578740D
:104CF0004368616E6E656C456E61626C6522282941
:104D0000000000006578744368616E6E656C456EE6
:104D100061626C6528292C2023310000226578749B
:104D20004368616E6E656C44697361626C652228CC
:104D3000290000006578744368616E6E656C446993
:104D40007361626C6528292C2023310022657874F8
:104D50005365744368616E6E656C4D6F646549227E
:104D6000282900006578745365744368616E6E6528
:104D70006C4D6F64654928292C2023310000000008
:104D80002267707453746172742228290000000035
:104D9000677074537461727428292C2023310000C9
:104DA0002267707453746F702228290067707453DF
:104DB000746F7028292C2023310000002267707442
:104DC0004368616E6765496E74657276616C22280E
:104DD000290000006770744368616E6765496E74EE
:104DE000657276616C28292C20233100226770744B
:104DF0005374617274436F6E74696E756F75734925
:104E0000222829006770745374617274436F6E7442
:104E1000696E756F75734928292C202331000000B5
:104E20002267707453746172744F6E6553686F7447
:104E3000492228290000000067707453746172745D
:104E40004F6E6553686F744928292C202331000068
:104E50002267707453746F7054696D6572492228AB
:104E60002900000067707453746F7054696D657227
:104E70004928292C20233100677074506F6C6C65B1
:104E80006444656C617928292C20233100000000DE
:104E900022736453746172742228290073645374FA
:104EA00061727428292C202331000000227364537E
:104EB000746F702228290000736453746F7028295E
:104EC0002C20233100000000227364496E636F6D53
:104ED000696E674461746149222829002273645213
:104EE00065717565737444617461492228290000F5
:104EF0006770745F6C6C645F737461727428292CC2
:104F0000202331000000000000000000000000002D
:104F1000286E756C6C290000000000000000000085
:104F2000226C645374617274222829006C64537477
:104F300061727428292C202331000000226C6453F4
:104F4000746F7022282900006C6453746F702829D4
:104F50002C20233100000000226C64496E636F6DC9
:104F6000696E67446174614922282900226C645289
:104F70006571756573744461746149222829000064
:104F80004C4544436F6D6D00226C75617274506FB7
:104F90006C6C4C696E6B53746174757322282900B4
:104FA000626C696E6B6572000A0A426565426F61E8
:104FB00072642056312E300A0000000053595343CA
:104FC0004C4B3A2025640A004C0000004C494E4BE3
:104FD0002055500A000000004C494E4B20444F57CA
:104FE0004E0A0000256300004F56455252554E0AA6
:104FF000000000004652414D494E47204552524F55
:10500000520A0000504152495459204552524F52C1
:105010000A000000000402400500000000040240F5
:105020000400000012000000B80B030000000000A4
:105030006D61696E0016861104044C080C1014187A
:105040001C2021222324000000000000000000009A
:10505000911D0008C11D0008F11D0008211E000857
:10506000411E0008711E0008911E0008C11E0008A4
:10507000086002400460024000000B001C60024017
:105080000460024004010C003060024004600240F1
:1050900008020D0044600240046002400C030E0050
:1050A000586002400460024010040F006C6002402F
:1050B0000460024014051000806002400460024059
:1050C00018061100000000000000000000000000B1
:1050D00000960000000000400000000000000000FA
:1050E000A004802A00000000AFFBFFFF05511564FB
:1050F000DFFF00000077000000A00A008000000031
:1051000000000000FFFFFFFF55555555FFFF000051
:10511000000000000000000000000000000000008F
:10512000FFFFFFFF55555551FFFF00000000000035
:10513000000000000000000000000000000000006F
:1051400055555555FFFF000000000000000000000D
:1051500000000000000000000000000055555555FB
:10516000FFFF000000000000000000000000000041
:10517000000000000F00000050555555FFFF0000D3
:10518000000000000000000000000000000000001F
:105190006138000891380008C1380008F13800086B
:1051A00011390008413900086139000891390008B7
:0C51B0001027000001450008000000006E
:1051C000000402400500000000040240040000004A
:0851D0001200000000000100C4
:0400000508000121CD
:00000001FF
